:020000040000fa
:080000000002040000000000f2
:020000040000fa
:04000800e00500000f
:020000040000fa
:04000c00720300007b
:020000040000fa
:04001000b403000035
:020000040000fa
:040014009203000053
:020000040000fa
:04001800d40300000d
:020000040000fa
:04001c00e0050000fb
:020000040000fa
:04002000e0050000f7
:020000040000fa
:04002400e0050000f3
:020000040000fa
:04002800a40500002b
:020000040000fa
:04002c00e0050000eb
:020000040000fa
:04003000e0050000e7
:020000040000fa
:04003400e0050000e3
:020000040000fa
:04003800e0050000df
:020000040000fa
:04003c00e0050000db
:020000040000fa
:04004000e0050000d7
:020000040000fa
:04004400e0050000d3
:020000040000fa
:04004800e0050000cf
:020000040000fa
:04004c00e0050000cb
:020000040000fa
:04005000e0050000c7
:020000040000fa
:04005400280500007b
:020000040000fa
:04005800cc040000d4
:020000040000fa
:04005c00e0050000bb
:020000040000fa
:04006000e0050000b7
:020000040000fa
:04006400e0050000b3
:020000040000fa
:04006800e0050000af
:020000040000fa
:04006c00e0050000ab
:020000040000fa
:04007000e0050000a7
:020000040000fa
:04007400e0050000a3
:020000040000fa
:04007800c2050000bd
:020000040000fa
:04007c00e00500009b
:020000040000fa
:04008000e005000097
:020000040000fa
:04008400e005000093
:020000040000fa
:04008800e00500008f
:020000040000fa
:04008c00e00500008b
:020000040000fa
:04009000e005000087
:020000040000fa
:04009400e005000083
:020000040000fa
:04009800e00500007f
:020000040000fa
:04009c00e00500007b
:020000040000fa
:0400a0005004000008
:020000040000fa
:0400a400f403000061
:020000040000fa
:0400a800e00500006f
:020000040000fa
:0400ac00e00500006b
:020000040000fa
:0400b000e005000067
:020000040000fa
:0400b400e005000063
:020000040000fa
:0400b800e00500005f
:020000040000fa
:0400bc00e00500005b
:020000040000fa
:0400c000e005000057
:020000040000fa
:0400c400e005000053
:020000040000fa
:0400c800e00500004f
:020000040000fa
:0400cc00e00500004b
:020000040000fa
:0400d000e005000047
:020000040000fa
:0400d400e005000043
:020000040000fa
:0400d800e00500003f
:020000040000fa
:0400dc00e00500003b
:020000040000fa
:0400e000e005000037
:020000040000fa
:0400e400e005000033
:020000040000fa
:0400e800e00500002f
:020000040000fa
:0400ec00e00500002b
:020000040000fa
:0400f000e005000027
:020000040000fa
:0400f400e005000023
:020000040000fa
:0400f800e00500001f
:020000040000fa
:0400fc00e00500001b
:020000040000fa
:04010000e005000016
:020000040000fa
:04010400e005000012
:020000040000fa
:04010800e00500000e
:020000040000fa
:04010c00e00500000a
:020000040000fa
:04011000e005000006
:020000040000fa
:04011400e005000002
:020000040000fa
:04011800e0050000fe
:020000040000fa
:04011c00e0050000fa
:020000040000fa
:040120005403000084
:020000040000fa
:04012400e0050000f2
:020000040000fa
:04012800e0050000ee
:020000040000fa
:04012c008e0500003c
:020000040000fa
:04013000b604000011
:020000040000fa
:04013400e0050000e2
:020000040000fa
:04013800e0050000de
:020000040000fa
:04013c00e0050000da
:020000040000fa
:04014000e0050000d6
:020000040000fa
:04014400e0050000d2
:020000040000fa
:04014800e0050000ce
:020000040000fa
:04014c00e0050000ca
:020000040000fa
:04015000e0050000c6
:020000040000fa
:04015400e0050000c2
:020000040000fa
:04015800e0050000be
:020000040000fa
:04015c00e0050000ba
:020000040000fa
:04016000e0050000b6
:020000040000fa
:04016400e0050000b2
:020000040000fa
:04016800e0050000ae
:020000040000fa
:04016c00e0050000aa
:020000040000fa
:04017000e0050000a6
:020000040000fa
:04017400e0050000a2
:020000040000fa
:04017800e00500009e
:020000040000fa
:04017c00e00500009a
:020000040000fa
:04018000e005000096
:020000040000fa
:04018400e005000092
:020000040000fa
:04018800e00500008e
:020000040000fa
:04018c00e00500008a
:020000040000fa
:04019000e005000086
:020000040000fa
:04019400e005000082
:020000040000fa
:04019800e00500007e
:020000040000fa
:04019c00e00500007a
:020000040000fa
:0401a000e005000076
:020000040000fa
:0401a400e005000072
:020000040000fa
:0401a800e00500006e
:020000040000fa
:0401ac00e00500006a
:020000040000fa
:0401b000e005000066
:020000040000fa
:0401b400e005000062
:020000040000fa
:0401b800e00500005e
:020000040000fa
:0401bc00e00500005a
:020000040000fa
:0401c000e005000056
:020000040000fa
:0401c400e005000052
:020000040000fa
:0401c800e00500004e
:020000040000fa
:0401cc00e00500004a
:020000040000fa
:0401d000e005000046
:020000040000fa
:0401d400e005000042
:020000040000fa
:0401d800e00500003e
:020000040000fa
:0401dc00e00500003a
:020000040000fa
:0401e000e005000036
:020000040000fa
:0401e400e005000032
:020000040000fa
:0401e800e00500002e
:020000040000fa
:0401ec00e00500002a
:020000040000fa
:0401f000e005000026
:020000040000fa
:0401f400e005000022
:020000040000fa
:0401f800e00500001e
:020000040000fa
:0401fc00e00500001a
:020000040000fa
:04020800e00500000d
:020000040000fa
:04020c007203000079
:020000040000fa
:04021000b403000033
:020000040000fa
:040214009203000051
:020000040000fa
:04021800d40300000b
:020000040000fa
:04021c00e0050000f9
:020000040000fa
:04022000e0050000f5
:020000040000fa
:04022400e0050000f1
:020000040000fa
:04022800a405000029
:020000040000fa
:04022c00e0050000e9
:020000040000fa
:04023000e0050000e5
:020000040000fa
:04023400e0050000e1
:020000040000fa
:04023800e0050000dd
:020000040000fa
:04023c00e0050000d9
:020000040000fa
:04024000e0050000d5
:020000040000fa
:04024400e0050000d1
:020000040000fa
:04024800e0050000cd
:020000040000fa
:04024c00e0050000c9
:020000040000fa
:04025000e0050000c5
:020000040000fa
:040254002805000079
:020000040000fa
:04025800cc040000d2
:020000040000fa
:04025c00e0050000b9
:020000040000fa
:04026000e0050000b5
:020000040000fa
:04026400e0050000b1
:020000040000fa
:04026800e0050000ad
:020000040000fa
:04026c00e0050000a9
:020000040000fa
:04027000e0050000a5
:020000040000fa
:04027400e0050000a1
:020000040000fa
:04027800c2050000bb
:020000040000fa
:04027c00e005000099
:020000040000fa
:04028000e005000095
:020000040000fa
:04028400e005000091
:020000040000fa
:04028800e00500008d
:020000040000fa
:04028c00e005000089
:020000040000fa
:04029000e005000085
:020000040000fa
:04029400e005000081
:020000040000fa
:04029800e00500007d
:020000040000fa
:04029c00e005000079
:020000040000fa
:0402a0005004000006
:020000040000fa
:0402a400f40300005f
:020000040000fa
:0402a800e00500006d
:020000040000fa
:0402ac00e005000069
:020000040000fa
:0402b000e005000065
:020000040000fa
:0402b400e005000061
:020000040000fa
:0402b800e00500005d
:020000040000fa
:0402bc00e005000059
:020000040000fa
:0402c000e005000055
:020000040000fa
:0402c400e005000051
:020000040000fa
:0402c800e00500004d
:020000040000fa
:0402cc00e005000049
:020000040000fa
:0402d000e005000045
:020000040000fa
:0402d400e005000041
:020000040000fa
:0402d800e00500003d
:020000040000fa
:0402dc00e005000039
:020000040000fa
:0402e000e005000035
:020000040000fa
:0402e400e005000031
:020000040000fa
:0402e800e00500002d
:020000040000fa
:0402ec00e005000029
:020000040000fa
:0402f000e005000025
:020000040000fa
:0402f400e005000021
:020000040000fa
:0402f800e00500001d
:020000040000fa
:0402fc00e005000019
:020000040000fa
:04030000e005000014
:020000040000fa
:04030400e005000010
:020000040000fa
:04030800e00500000c
:020000040000fa
:04030c00e005000008
:020000040000fa
:04031000e005000004
:020000040000fa
:04031400e005000000
:020000040000fa
:04031800e0050000fc
:020000040000fa
:04031c00e0050000f8
:020000040000fa
:040320005403000082
:020000040000fa
:04032400e0050000f0
:020000040000fa
:04032800e0050000ec
:020000040000fa
:04032c008e0500003a
:020000040000fa
:04033000b60400000f
:020000040000fa
:04033400e0050000e0
:020000040000fa
:04033800e0050000dc
:020000040000fa
:04033c00e0050000d8
:020000040000fa
:04034000e0050000d4
:020000040000fa
:04034400e0050000d0
:020000040000fa
:04034800e0050000cc
:020000040000fa
:04034c00e0050000c8
:020000040000fa
:04035000e0050000c4
:020000040000fa
:04035400e0050000c0
:020000040000fa
:04035800e0050000bc
:020000040000fa
:04035c00e0050000b8
:020000040000fa
:04036000e0050000b4
:020000040000fa
:04036400e0050000b0
:020000040000fa
:04036800e0050000ac
:020000040000fa
:04036c00e0050000a8
:020000040000fa
:04037000e0050000a4
:020000040000fa
:04037400e0050000a0
:020000040000fa
:04037800e00500009c
:020000040000fa
:04037c00e005000098
:020000040000fa
:04038000e005000094
:020000040000fa
:04038400e005000090
:020000040000fa
:04038800e00500008c
:020000040000fa
:04038c00e005000088
:020000040000fa
:04039000e005000084
:020000040000fa
:04039400e005000080
:020000040000fa
:04039800e00500007c
:020000040000fa
:04039c00e005000078
:020000040000fa
:0403a000e005000074
:020000040000fa
:0403a400e005000070
:020000040000fa
:0403a800e00500006c
:020000040000fa
:0403ac00e005000068
:020000040000fa
:0403b000e005000064
:020000040000fa
:0403b400e005000060
:020000040000fa
:0403b800e00500005c
:020000040000fa
:0403bc00e005000058
:020000040000fa
:0403c000e005000054
:020000040000fa
:0403c400e005000050
:020000040000fa
:0403c800e00500004c
:020000040000fa
:0403cc00e005000048
:020000040000fa
:0403d000e005000044
:020000040000fa
:0403d400e005000040
:020000040000fa
:0403d800e00500003c
:020000040000fa
:0403dc00e005000038
:020000040000fa
:0403e000e005000034
:020000040000fa
:0403e400e005000030
:020000040000fa
:0403e800e00500002c
:020000040000fa
:0403ec00e005000028
:020000040000fa
:0403f000e005000024
:020000040000fa
:0403f400e005000020
:020000040000fa
:0403f800e00500001c
:020000040000fa
:0403fc00e005000018
:020000040000fa
:100400000f9220000e7f22000e01880000000000e5
:10041000000020000000e000020032000001200087
:1004200020028800140007000c0207000000e00012
:1004300003003a00405e2100010020000200370066
:100440000000200001002000810f70000100320038
:1004500014000700000020000000e000020032004d
:1004600000000200000000003a140200000000003a
:100470000040da000000fe004440a9000002200015
:100480000000e000030032000020200090018800fe
:100490004440a800000006008a1f78008b1f7800e7
:1004a00000000600a1028800800478000000eb0034
:1004b0001f003700e284440054a0b4009905ba003c
:1004c000e284440054a0b4009906ba00e2844400d7
:1004d00054a0b4000006eb00476fde00fd07b20039
:1004e000ae018800636ce10003003a00eaff0700f8
:1004f0000000eb000e003700606ce10008003a00dd
:10050000004deb000a05e800020039003420ec0041
:100510000af0a0008b05e900f9ff3e000400370057
:100520006168e100010032000086eb000b0007006b
:1005300019c7ba001905ba000e04e00003003a001a
:100540000a00e000dbff3a0000000600fe07b200f0
:10055000ae0288008a047800f5ff37000cd0a300b3
:10056000e20f4d001c00390089027800354dba00b9
:100570000a05e800020039003420ec000af0a0006f
:100580008b05e9000f003200254dba000a05e8008e
:10059000020039003420ec000af0a0008b05e900cd
:1005a000080032000c00e0000600320015cdba0051
:1005b0000a05e800020039003420ec000af0a0002f
:1005c0008b05e9008984e80054a0b4000b00e0002a
:1005d000e2ff3a00000006009902ba00055d7800cb
:1005e0008b05e900f7ff3200c82ade00055d7800c0
:1005f0008b05e900f3ff32000c00e000f1ff320050
:1006000019ddba00eeff3700040b04000000000003
:10061000300b040000000000700b0400000000001c
:100620005a0b040000000000c80a0400000000008b
:10063000e60a040000000000ac0b0400000000000b
:10064000880a0400000000009e070400000000006b
:10065000ca070400000000000a08040000000000af
:10066000f40704000000000062070400000000001e
:10067000800704000000000046080400000000009d
:1006800022070400000000007a07040000000000b8
:100690009807040000000000e00a040000000000c9
:1006a000fe0a0400000000003600f800809fbe0033
:1006b000829fbe00849fbe00869fbe000000fa009d
:1006c000ad0607008bc0a9000080fa004f03be00f2
:1006d0004f02be004f01be004f00be003600f900c1
:1006e000004006003600f800809fbe00829fbe00da
:1006f000849fbe00869fbe000000fa008020a900f3
:100700000000eb006b0907000080fa004f03be00f9
:100710004f02be004f01be004f00be003600f90080
:10072000004006003600f800809fbe00829fbe0099
:10073000849fbe00869fbe000000fa006209070089
:100740008040a900100020005a0907000080fa002c
:100750004f03be004f02be004f01be004f00be005f
:100760003600f900004006003600f800809fbe0009
:10077000829fbe00849fbe00869fbe000000fa00dc
:100780008060a900200020004a0907000080fa00cc
:100790004f03be004f02be004f01be004f00be001f
:1007a0003600f900004006003600f800809fbe00c9
:1007b000829fbe00849fbe00869fbe000000fa009c
:1007c0008080a900300020003a0907000080fa006c
:1007d0004f03be004f02be004f01be004f00be00df
:1007e0003600f900004006003600f800809fbe0089
:1007f000829fbe00849fbe00869fbe000000fa005c
:100800005040800000000100314080002040800006
:10081000808f500002003a0097e0a90019003700cd
:1008200087e0a90010003700304080009040780039
:100830008180fb00d12888000000e800304088005b
:100840003140800050902000808f500002003a001c
:10085000c08f200030408800314080002040800060
:10086000808f500006003200c12880000020200048
:10087000008060000000e000ebff32000100370064
:10088000000000000080fa004f03be004f02be00cf
:100890004f01be004f00be003600f90000400600c8
:1008a0003600f800809fbe00829fbe00849fbe007d
:1008b000869fbe000000fa0060408000000001003a
:1008c00087c0a9001e00370001408000e02880009a
:1008d000004078008048780001408000d0902000df
:1008e000808f500009003200004080000000e800c6
:1008f00011408000810f5000040032000040800051
:100900000000e800004088000d0037000140800032
:10091000d0902000808f500007003a0011408000e6
:1009200050902000808f5000030032005090200033
:10093000004088000200370010c0b30008e8b7008c
:10094000c0288000610060000000e000deff3a0087
:100950000080fa004f03be004f02be004f01be00f0
:100960004f00be003600f90000400600801f7800ee
:100970000000fa00c0288000620060000000e00073
:10098000010032001825a9008c40a9000080fa005f
:100990004f007800004006003600f800809fbe003f
:1009a000829fbe00849fbe00869fbe000000fa00aa
:1009b000c040800000000100a14080009040800005
:1009c000808f500002003a009580a900190037007e
:1009d0008580a90010003700a0408000904078007a
:1009e0008180fb00212888000000e800a0408800ea
:1009f000a140800070912000808f500002003a00da
:100a0000e0902000a0408800a1408000904080003d
:100a1000808f500006003200112880000020200046
:100a2000008060000000e000ebff320001003700b2
:100a3000000000000080fa004f03be004f02be001d
:100a40004f01be004f00be003600f9000040060016
:100a50003600f800809fbe00829fbe00849fbe00cb
:100a6000869fbe000000fa00d04080000000010018
:100a70008560a9001e00370071408000302880008a
:100a8000004078008048780071408000f09120009c
:100a9000808f500009003200704080000000e800a4
:100aa00081408000810f50000400320070408000bf
:100ab0000000e800704088000d00370071408000a1
:100ac000f0912000808f500007003a0081408000a4
:100ad00070912000808f5000030032007091200040
:100ae000704088000200370010c0b30016e8b7005d
:100af00010288000610060000000e000deff3a0086
:100b00000080fa004f03be004f02be004f01be003e
:100b10004f00be003600f90000400600801f78003c
:100b20000000fa0010288000620060000000e00071
:100b3000010032000225a9008c20a9000080fa00e3
:100b40004f007800004006003600f800809fbe008d
:100b5000829fbe00849fbe00869fbe000000fa00f8
:100b6000360807008400a9000080fa004f03be0089
:100b70004f02be004f01be004f00be003600f9001c
:100b8000004006003600f800809fbe00829fbe0035
:100b9000849fbe00869fbe000000fa002a0807005e
:100ba0008680a9000080fa004f03be004f02be00fd
:100bb0004f01be004f00be003600f90000400600a5
:100bc0000040da000000fe000a00fa00e4014700dd
:100bd0008009780066004700010878006800470037
:100be000020878000e80e800e6004700110878004f
:100bf0000000eb00000f78000f003700000000003d
:100c0000b70207000004a2000004e000fcff3a0065
:100c10000e80e80010007800104078008e80e80018
:100c2000910078000101e8008e80e80082087800d9
:100c30008b0207001e0fe8006800470010007800d4
:100c40009e007800808f5000ecff3900680047005c
:100c5000100078000080fa00000006000000050087
:100c6000889fbe008a9fbe00800478000200e000da
:100c70005a00320001407800814c780082814400a3
:100c8000f1f99f00e20f51005400360091449800a2
:100c9000a1449800e1f99f00d1f99f00e60f5100af
:100ca0004e003600b1449800c1f99f00e80f510092
:100cb0004a0036000905ea00630565000a8444001d
:100cc0000a055100c1ff2f00010565000080fb00ef
:100cd0008000eb00121020001310200043000700da
:100ce000008cbe000a01440060b99f0071b99f00ea
:100cf000e80f5500390036002004980031049800b0
:100d0000400498005104980020b99f0031b99f0019
:100d100040b99f0051b99f00f80f55002f003600d1
:100d20006004980071049800000c9800110c980061
:100d3000200c9800310c9800400c9800510c980041
:100d400020b19f0031b19f0040b19f0051b19f0081
:100d500060b19f0071b19f0000b99f0011b99f0061
:100d6000640164007801410002044400020555005a
:100d70006011b8000203be000002be000403be0002
:100d80006022b800000072008180720002017300ce
:100d9000838173000f00370008027800009abe00bc
:100da000029abe00009abe000292be00000c98009b
:100db000110c9800220c9800330c9800400c9800fd
:100dc000510c9800620c9800730c98000a02b10054
:100dd0000802b000ff0f5500efff3e000900780049
:100de0004f05be004f04be0000000600020ab90015
:100df000001bb9000200b8008100420081004300de
:040e000000000600e8
:020000040000fa
:100e0400040b0000300b0000700b00005a0b0000b4
:100e1400c80a0000e60a0000ac0b0000880a0000c3
:100e24009e070000ca0700000a080000f40700003b
:100e34006207000080070000460800002207000047
:020000040000fa
:100e44000000fa0097e0a90097c0a90080002000e4
:100e5400b02888001825ef0070062000f0288800cc
:100e64002025ef002225ef002425ef002625ef00a2
:100e74002825ef002a25ef00c08f2000304088008d
:100e8400c08f20002040880050902000104088002f
:100e940050902000004088000868ef00a0772000f0
:100ea40007000700807920001400070097c0a800fd
:100eb40017e5a8001945a8000080fa000000060004
:100ec4000200fa00000f78001e0078000000e00025
:100ed40003003a00a0772000504088000200370049
:100ee4009e007800514088000080fa00000006004f
:100ef4000000fa000080fa00000006000200fa0078
:100f0400000f78001e0078000000e00003003a00a3
:100f14008079200060408800020037009e0078003d
:100f2400614088000080fa00000006000000fa001a
:100f34000080fa00000006000200fa000040eb0006
:100f4400004f780000000000114080000040800045
:100f5400808f5000fcff320010408000104f78005a
:100f6400104080000000e80010408800114080001c
:100f7400e0902000808f500002003a005090200042
:100f8400104088001e4078000080fa00000006002f
:100f94000200fa00004f7800000000001c00070067
:100fa4000004a2000004e000fcff3a00204080009e
:100fb4001e487800204080000000e800204088009f
:100fc4002140800050902000808f500002003a00a1
:100fd400c08f20002040880097e0a8000080fa001d
:100fe400000006000000fa0011408000004080006c
:100ff4000080680000f0a7000000ea000000ea009a
:101004004f00de00004078000080fa000000060077
:101014000400fa000e80e8003140800001087800e6
:10102400214080000e80e80010007800808f50007e
:10103400070031000e80e800900078002040800016
:10104400008050000000e900000f7800060037001f
:101054000e80e8009000780020408000008050005e
:1010640068004000000f78001e00780000f0a70020
:101074000000ea000000ea004f00de0000407800b3
:101084000080fa00000006000000fa002140800001
:1010940030408000808f500009003a00c128800051
:1010a400001020000080600000f0a7000000ea00ab
:1010b4000000ea004f00de00004078000100370025
:1010c4000040eb000080fa00000006000400fa0073
:1010d4000e80e80001408000010878001140800083
:1010e4000e80e80010007800810f500007003100e6
:1010f4000e80e800900078001040800000805000ce
:1011040069004000000f7800040037000e80e800fa
:101114009000780010408000008f5000f00f2000f5
:101124009e007800808f50000200360000c0eb0063
:10113400020037001e007800004078000080fa00aa
:10114400000006000400fa000e80e8003140800030
:1011540001087800214080000e80e800100078002b
:10116400808f5000070031000e80e8009000780066
:1011740020408000008050000000e900000f78004b
:10118400060037000e80e8009000780020408000c0
:101194000080500068004000000f7800f00f20002d
:1011a4009e007800808f50000200360000c0eb00e3
:1011b400020037001e007800004078000080fa002a
:1011c400000006000800fa006401470000097800e6
:1011d4006600470001087800bcff07000080fb00a0
:1011e400000f780066004700100078009e0f500042
:1011f4000200310066004700100f78008000eb0009
:101204000e80e800010878000e0037004aff07004e
:10121400e4004700910078008048780064004700ab
:10122400100078008000e80064004700010878009e
:101234000e80e800100078008000e8000e80e800ce
:10124400010878000e80e800100078009e0f50001e
:10125400eeff39001e0078000080fa00000006004e
:101264000800fa006401470000097800660047009e
:1012740001087800b3ff07000080fb00000f78002e
:1012840066004700100078009e0f500002003100f5
:1012940066004700100f78008000eb000e80e80025
:1012a400010878000e003700640047001000780041
:1012b40010407800e4004700910078000101e80044
:1012c400e40047008208780031ff07000e80e80040
:1012d400100078008000e8000e80e8000108780023
:1012e4000e80e800100078009e0f5000eeff3900d9
:1012f4001e0078000080fa00000006000400fa00d6
:101304000000eb00000f780070ff07008e80e800fb
:10131400804878008bff0700e3004700804878008e
:101324000e80e800104078000080fb000000e00020
:1013340003003200e90f50000300320004003700bc
:101344001e20a000040037001e00a0000200370089
:101354001e10a00000000000630047001040780049
:101364000080fb000000e00003003200e90f5000a1
:1013740003003200040037001e30a00002003700d2
:101384001e40a000000000001e0078000080fa004b
:10139400000006000400fa008e80e800800878004f
:1013a400114080000e80e80010007800008f40009b
:1013b400020037009e007800698f5000e090200002
:1013c4009e007800808f5000faff3e001e007800d7
:1013d400104078000080fa00000006000000fa00c7
:1013e4003aff07000080fb000000e9004f00de0028
:1013f400004078000080fa00000006000000fa00b7
:1014040050ff07000080fb000000e9004f00de00f1
:10141400004078000080fa00000006000000fa0096
:10142400c02880000080fa00000006000000fa00d6
:1014340044ff07000004e000100032003140800047
:1014440020408000808f500006003600304080002d
:101454008000780020408000008050000000e900f7
:101464000700370030408000800078002040800072
:101474000080500068004000010037000000eb00cd
:101484000080fa00000006000000fa000fff0700c9
:101494000004e00010003200114080000040800091
:1014a400808f5000060036001040800080007800d5
:1014b40000408000008050000000e9000700370071
:1014c40010408000800078000040800000805000c0
:1014d40068004000010037000000eb000080fa00c3
:1014e400000006000000fa0017e5a8001945a8004e
:1014f4000080fa00000006000000fa0017e5a900c9
:101504001945a9000080fa00000006000000fa0056
:101514009580a9009560a90080002000002888001b
:101524000225ef0070062000402888000a25ef00fd
:101534000c25ef000e25ef001025ef001225ef001b
:101544001425ef00e0902000a0408800e0902000e7
:1015540090408800709120008040880070912000a5
:10156400704088001668ef0000ae200007000700f6
:10157400e0af2000140007009560a80001e5a80072
:101584000345a8000080fa00000006000200fa00eb
:10159400000f78001e0078000000e00003003a000d
:1015a40000ae2000c0408800020037009e00780092
:1015b400c14088000080fa00000006000000fa0024
:1015c4000080fa00000006000200fa00000f780014
:1015d4001e0078000000e00003003a00e0af2000a5
:1015e400d0408800020037009e007800d140880077
:1015f4000080fa00000006000000fa000080fa00f3
:10160400000006000200fa000040eb00004f7800e2
:10161400000000008140800070408000808f5000f6
:10162400fcff320080408000104f78008040800032
:101634000000e80080408800814080000092200083
:10164400808f500002003a00709120008040880092
:101654001e4078000080fa00000006000200fa0034
:10166400004f7800000000001c0007000004a200e6
:101674000004e000fcff3a00904080001e4878001f
:10168400904080000000e800904088009140800075
:1016940070912000808f500002003a00e0902000fa
:1016a400904088009580a8000080fa0000000600a1
:1016b4000000fa00814080007040800000806800d3
:1016c40000f0a7000000ea000000ea004f00de007e
:1016d400004078000080fa00000006000400fa00d0
:1016e4000e80e800a140800001087800914080004d
:1016f4000e80e80010007800808f50000700310051
:101704000e80e80090007800904080000080500037
:101714000000e900000f7800060037000e80e800a2
:1017240090007800904080000080500068004000e5
:10173400000f78001e00780000f0a7000000ea0007
:101744000000ea004f00de00004078000080fa004c
:10175400000006000000fa0091408000a0408000d4
:10176400808f500009003a001128800000102000ea
:101774000080600000f0a7000000ea000000ea001a
:101784004f00de0000407800010037000040eb000d
:101794000080fa00000006000400fa000e80e80051
:1017a4007140800001087800814080000e80e800cc
:1017b40010007800810f5000070031000e80e8000f
:1017c4009000780080408000008050006900400054
:1017d400000f7800040037000e80e80090007800c5
:1017e40080408000008f5000f00f20009e007800a1
:1017f400808f50000200360000c0eb00020037006a
:101804001e007800004078000080fa000000060006
:101814000400fa000e80e800a1408000010878006e
:10182400914080000e80e80010007800808f500006
:10183400070031000e80e80090007800904080009e
:10184400008050000000e900000f78000600370017
:101854000e80e800900078009040800000805000e6
:1018640068004000000f7800f00f20009e00780010
:10187400808f50000200360000c0eb0002003700e9
:101884001e007800004078000080fa000000060086
:101894000800fa0064014700000978006600470068
:1018a40001087800bcff07000080fb00000f7800ef
:1018b40066004700100078009e0f500002003100bf
:1018c40066004700100f78008000eb000e80e800ef
:1018d400010878000e0037004aff0700e4004700c3
:1018e4009100780080487800640047001000780078
:1018f4008000e80064004700010878000e80e800da
:10190400100078008000e8000e80e80001087800ec
:101914000e80e800100078009e0f5000eeff3900a2
:101924001e0078000080fa00000006000800fa009b
:101934006401470000097800660047000108780048
:10194400b3ff07000080fb00000f7800660047002b
:10195400100078009e0f500002003100660047001e
:10196400100f78008000eb000e80e800010878007a
:101974000e00370064004700100078001040780023
:10198400e4004700910078000101e800e40047000a
:101994008208780031ff07000e80e800100078000c
:1019a4008000e8000e80e800010878000e80e8005e
:1019b400100078009e0f5000eeff39001e007800e2
:1019c4000080fa00000006000400fa000000eb00aa
:1019d400000f780070ff07008e80e80080487800d0
:1019e4008bff0700e3004700804878000e80e80082
:1019f400104078000080fb000000e000030032008b
:101a0400e90f500003003200040037001e20a0003c
:101a1400040037001e00a000020037001e10a000c2
:101a24000000000063004700104078000080fb00c5
:101a34000000e00003003200e90f50000300320010
:101a4400040037001e30a000020037001e40a00032
:101a5400000000001e0078000080fa00000006006c
:101a64000400fa008e80e80080087800814080003d
:101a74000e80e80010007800008f4000020037005c
:101a84009e007800698f5000009220009e0078002c
:101a9400808f5000faff3e001e007800104078004e
:101aa4000080fa00000006000000fa003aff070078
:101ab4000080fb000000e9004f00de0000407800d9
:101ac4000080fa00000006000000fa0050ff070042
:101ad4000080fb000000e9004f00de0000407800b9
:101ae4000080fa00000006000000fa0010288000c0
:101af4000080fa00000006000000fa0044ff07001e
:101b04000004e00010003200a140800090408000fa
:101b1400808f500006003600a040800080007800ce
:101b240090408000008050000000e900070037006a
:101b3400a040800080007800904080000080500029
:101b440068004000010037000000eb000080fa004c
:101b5400000006000000fa000fff07000004e00088
:101b6400100032008140800070408000808f50005f
:101b740006003600804080008000780070408000bd
:101b8400008050000000e90007003700804080001a
:101b940080007800704080000080500068004000a1
:101ba400010037000000eb000080fa00000006008e
:101bb4000000fa0001e5a8000345a8000080fa002f
:101bc400000006000000fa0001e5a9000345a90091
:101bd4000080fa00000006000000fa005005200012
:101be400303b8800a00a2000303b880025a1a800d3
:101bf40025e1a9001c0007000004a2000004e00085
:101c04000c00320021098000003020000100700027
:101c1400200988003002200010098800303220009a
:101c240010098800904120001009880030522300d8
:101c3400100988002621ef0025e1a80025a1a900ac
:101c44009bc0a8000080fa00000006000200fa0011
:101c5400004f78001e417800c1812000824878003e
:101c64000080fa00000006000000fa001cc8bf0053
:101c74000080fa00000006000400fa008e80e800ec
:101c840080087800210980000000210000806000a5
:101c94000000e000020032000040eb004700370083
:101ca4002109800000302000010070002009880014
:101cb40011098000010f78001e00780000407800b0
:101cc4001a0107008080fb000e80e80010007800f5
:101cd4006a0040000108780011098000010f7800b3
:101ce4001e0078004800de00004078000f01070065
:101cf4008080fb000e80e80010007800680040003f
:101d0400010878001e0078000040780007010700f1
:101d14008080fb000e80e800100078006600400020
:101d24000108780011098000010f78001e00780076
:101d34004800de0000407800fc0007008080fb00c3
:101d44000e80e800100078006c0040000108780064
:101d54001e00780000407800f40007008080fb003b
:101d64000e80e8001000780064004000010878004c
:101d740011098000010f78001e0078004800de0081
:101d840000407800e90007008080fb000e80e80036
:101d9400100078000080e800010878001e00780038
:101da40000407800e10007008080fb000e80e8001e
:101db400100078000108780010c0b3000080fa0019
:101dc400000006000200fa00881f7800000f780067
:101dd40051052000313b8800a10a2000313b8800d6
:101de40025a1a80025e1a9008bc0a9009bc0a900da
:101df40021098000003020000100700020098800c3
:101e04001e0078006a00400010007800004078004e
:101e1400ac0007000080fb00100988001e00780059
:101e2400680040001000780000407800a50007001a
:101e34000080fb004804dd001e00780066004000be
:101e440010007800004078009e0007000080fb002e
:101e540008007000100988001e0078006c00400023
:101e64001000780000407800960007000080fb0016
:101e74004804dd001e007800640040001000780073
:101e8400004078008f0007000080fb00080070000d
:101e9400100988001e0078000080e8001000780017
:101ea40000407800870007000080fb004804dd0044
:101eb4001e007800100078000040780081000700c0
:101ec4000080fb00080070001009880025e1a800cc
:101ed40025a1a9009bc0a8004f0478000080fa0047
:101ee400000006000400fa008e80e80080087800f4
:101ef4002109800000002100008060000000e00053
:101f0400020032000040eb003b0037002109800052
:101f140000302000010070002009880011098000b1
:101f2400010f78009e0078000e80e8001000780011
:101f34006a0040000108780011098000010f780050
:101f44001e0078004800de00800078000e80e80063
:101f54001000780068004000010878009e007800b6
:101f6400f00f2000808060000e80e80010007800f0
:101f7400660040000108780011098000010f780014
:101f84001e0078004800de00800078000e80e80023
:101f9400100078006c004000010878009e00780072
:101fa400f00f2000808060000e80e80010007800b0
:101fb400640040000108780011098000010f7800d6
:101fc4001e0078004800de00800078000e80e800e3
:101fd400100078000080e800010878009e00780076
:101fe400f00f2000808060000e80e8001000780070
:101ff4000108780010c0b3000080fa000000060059
:102004000200fa00000f780051052000313b8800df
:10201400a10a2000313b880025a1a80025e1a900e0
:102024008bc0a9009bc0a9002109800000302000ba
:1020340001007000200988001e0078006a0040003a
:1020440010007800100988001e0078006800400025
:10205400100078004800dd009e007800e680400013
:102064009100780000807000100988001e0078003c
:102074006c004000100078004800dd009e007800ed
:10208400e48040009100780000807000100988000e
:102094001e0078000080e800100078004800dd0091
:1020a4009e0078009100780000807000100988007c
:1020b40025e1a80025a1a9009bc0a8000080fa0082
:1020c400000006000400fa008e80e80080487800d2
:1020d4000e80e800104078008080fb00d0cc2c00fb
:1020e4000008b8004308de00004078004400dd002a
:1020f400004f78000e80e800104078000081fb005b
:10210400d0cc2c000010b8004308de006a00b900ef
:102114000000780000005100004078001e4f70005d
:102124001e4078000080fa00000006000400fa0057
:102134008e80e800804878000e80e8001040780027
:102144000080fb004400de00004078006a00b90013
:1021540000007800804078000e80e800104078008d
:102164006f40600000cf40001e4078000080fa00fd
:10217400000006000000fa000080fa0000000600db
:102184000000fa000223ef000423ef000823ef000d
:1021940030002000801888001423ef001623ef007d
:1021a4001823ef001a23ef001012280000188800eb
:1021b4000080fa00000006000400fa00000f780016
:1021c4000e80e8000108780000000000401880003c
:1021d400620060000000e000fcff3a001e0078008e
:1021e400104078000080fb006018880000000000a8
:1021f4004118800000022000008060000000e00020
:10220400fbff3a0060188000004078008e80e800f0
:1022140091007800804878000080fa0000000600f1
:102224001800fa00f20147008009780074004700a2
:102234000108780076004700020878000000eb00ef
:10224400000f78008000eb000e80e80001087800a1
:102254008000eb006e004700010878008000eb006e
:102264007000470001087800110020006c0047004e
:102274000108780072004700100078000000e000b8
:1022840007003a008000eb006a004700010878006c
:10229400f00047006400470001087800060037009a
:1022a4006a004700ec00470011087800640047000a
:1022b400f20047001108780076004700100078000b
:1022c4000000e00007003a008000eb0068004700cf
:1022d40001087800ee004700660047000108780016
:1022e4000700370068004700ec0047001108780039
:1022f40066004700f600470011087800000000005f
:1023040040188000620060000000e000fcff3a001a
:102314002700370040188000620060000000e000e1
:102324000d003a0064004700100078001040780067
:102334000080fb006018880064004700900078006b
:102344006a00470010007800808040006400470065
:10235400010878001e0fe8004118800000022000e8
:10236400008060000000e00011003a006018800066
:1023740000407800e600470091007800804878002b
:10238400660047009000780068004700100078005d
:102394008080400066004700010878000e80e80055
:1023a400100078008000e8000e80e8000108780042
:1023b40074004700100078009e007800808f500061
:1023c400d4ff3900160037004118800000022000b5
:1023d400008060000000e00011003a0060188000f6
:1023e40000407800e60047009100780080487800bb
:1023f40066004700900078006800470010007800ed
:102404008080400066004700010878000e80e800e4
:10241400100078008000e8000e80e80001087800d1
:102424000e80e800900078007400470010007800e7
:10243400808f5000e4ff39001e0078000080fa000d
:10244400000006000400fa008e80e800804878004e
:102454000e80e8008e00780057ff07001e407800c9
:102464000080fa00000006000600fa00000f780061
:102474000e80e80001087800640047000208780034
:1024840064004700100178000e80e8009000780096
:102494001e00780062ff07000080fa0000000600ba
:1024a4000000fa00401880000080fa0000000600d6
:1024b4000600fa00640147000049780065004700ff
:1024c400014878000e80e800e400470011487800d5
:1024d40063004700e5004700114878007d000700cd
:1024e4000e80e800728d200021002000deff07002e
:1024f400780007000000eb00000f78000080fa006d
:10250400000006000600fa00e40047008048780056
:10251400640047009040780000c8b30080c04000c9
:102524000e80e800014878000e8fe800690007007b
:10253400a28d2000210020001e007800caff0700a1
:1025440064000700b08d2000104078000080fa007d
:10255400000006000000fa000040eb00e9ff07005d
:10256400f1c0b30020c0b300d1ff0700401f20001a
:102574002e0107000080fa00000006000200fa00a5
:1025840040c1b300dfff0700004f78001e40780011
:102594000080fa00000006004400fa00881f78005a
:1025a400000478000e80e8000080e80002042000a7
:1025b4008000eb00a9f90700f0ff07008080fb0012
:1025c4000e80e800010878000000eb00000f78009e
:1025d4000600370020c1b300caff0700e40047002b
:1025e4009e804000804878001e0fe8009e0078001e
:1025f4000e80e80010007800808f5000f5ff39004d
:10260400e200470020000900311c78002804b100d2
:10261400080078004f0478000080fa0000000600eb
:102624000800fa00640147000009780066004700ca
:10263400010878008000eb000e80e80001087800b3
:1026440021c1b3000e80e800014878000000eb00cf
:10265400000f78000a0037001e00e8001e01780011
:10266400e4004700910078008280400091407800a7
:10267400000047000080e800014878001e0fe800d1
:102684009e0078006600470010007800808f50009c
:10269400f1ff39000f0007006600470010007800c2
:1026a4008000e8000e80e800428220006eff0700f0
:1026b400080007000080fa00000006000000fa008d
:1026c40001c8b30040c1b30079ff07000080fa00dd
:1026d400000006000000fa00700c80004f00de00cd
:1026e4000040780000c0ea00614060000080fb0008
:1026f4004f00dd00710c800001f0a10001007000aa
:10270400700c88000080fa00000006000000fa0047
:102714008421ef0080042900700c880060002000f0
:10272400000c880070fb2100500c88005620ef003c
:102734005820ef005a20ef006e20ef007020ef00c9
:102744007220ef008621ef009021ef00600020004e
:10275400400c880000202000900c880001088000b4
:10276400f00b20000081600060042000710520004f
:10277400031020008049780081497800824978005c
:10278400811d800000fc2f00008060007000b300f9
:10279400801d8800c11e8000f00f2c008080600026
:1027a4000050200001007000c01e8800211f80001e
:1027b400f00f2c0080806000009020000100700069
:1027c400201f8800911d800000fc2f000080600005
:1027d4000010a000901d8800111f8000f00f2c0035
:1027e400808060000070200001007000101f8800cd
:1027f400211f800000fc2f00008060000030a0003a
:10280400201f8800a11d800000fc2f0000806000b4
:10281400c000b300a01d8800e11e800000fc2f0052
:10282400008060003000b300e01e8800611c80005e
:10283400f00f2c008080600000b0200001007000c8
:10284400601c880000088000000178000260a0007d
:1028540060042000710520000310200080497800e6
:1028640081497800824978000080fa00000006005f
:102874005000fa001a010700b500070035ff0700f1
:102884008eff070011c0b30020c1b30008ff07008a
:1028940021c0b30020c1b30005ff070031c0b3005d
:1028a40020c1b30002ff070041c0b30020c1b30040
:1028b400fffe070051c0b30020c1b300fcfe0700b7
:1028c40061c0b30020c1b300f9fe070011c0b3001a
:1028d400c00420000e0040000148780021c0b3006d
:1028e400d00420000e0040000148780031c0b3003d
:1028f400e00420000e004000014878006a00470010
:1029040025ff07001dff0700004f7800710020001d
:102914000e80e80001087800010037000000000084
:1029240016ff0700e4004700804878006400470071
:1029340010407800e44f5000040032009100200061
:10294400660047000108780084000700640047001f
:1029540010407800e14f5000f0ff36008103200062
:102964006800470001087800edff37000000fa0016
:1029740011068000f08f2f00008060000080a0000e
:102984001006880021068000f08f2f000080600070
:102994000080a0002006880091058000f0ff280038
:1029a4000080600000c0a0009005880091058000b0
:1029b400f08f2f00008060000080a0009005880048
:1029c40021068000f0f82f00008060000040a00085
:1029d400200688005105800080ff2f0000806000e1
:1029e4000000a0005005880041058000f0ff280089
:1029f4000080600000c0a000400588002105800020
:102a040080ff2f00008060000000a00020058800e7
:102a14007105800080ff2f00008060000000a0008e
:102a2400700588000080fa00000006000200fa0029
:102a3400000f78000300370000fa20000100200096
:102a44008d0007001e00780000f0a7000000ea00d7
:102a54000000ea004f00de00004078001e0fe9008d
:102a64000004e000f4ff3a000080fa0000000600d1
:102a74000200fa00000f780005003700000820006b
:102a8400010020007c00070001fe2f001e8f400083
:102a94001e007800ff0f5000f8ff3e0003003700cf
:102aa4004000200001002000730007001e00780091
:102ab40000f0a7000000ea000000ea004f00de007a
:102ac400004078001e0fe9000004e000f4ff3a0023
:102ad4000080fa00000006000000fa000000230055
:102ae400100888000621ef006821ef006a21ef003a
:102af4006e21ef007021ef007221ef007421ef00ce
:102b04007621ef007a21ef007c21ef007e21ef0097
:102b14007200200080072000a1092000131020006b
:102b24008049780081497800824978002200200099
:102b34006004200071052000031020008049780003
:102b440081497800824978000080fa00000006007c
:102b54000000fa000080fa00000006000000fa00fd
:102b64008401a8000080fa00000006000000fa00ba
:102b74008401a9000080fa00000006000000fa00a9
:102b8400200c8000004078006140600000c0ea0032
:102b9400614060000080fb0061006000210c800047
:102ba4000100a10001007000200c88000080fa00e0
:102bb400000006000200fa00000f78000080fa000e
:042bc4000000060007
:020000040000fa
:102bc8001c0800000200000080000000dc08000073
:102bd80020000000800000001e0800000200000025
:102be80082000000ffff0000fc0800001200000047
:102bf80080000000000800000e00000080000000b7
:102c08000e09000012000000800000000e080000fd
:102c18000e0000008000000022080000ba0000003a
:102c28008000000020080000020000008000000072
:042c38000000000098
:020000040000fa
:102c3c000000fa000080fa00000006000000fa0014
:102c4c00c4ff07000080fa00000006000000fa0034
:102c5c008400a9008200a9009400a8008680a90025
:102c6c008220a9009680a8000080fa0000000600cf
:020000040000fa
:102c7c00f03fb1000180b10006003500ee03090001
:102c8c0000000000403fb1000180b100fbff3d009f
:102c9c001000b000203fb000020035000080090099
:082cac0000000000000006001a
:020000040000fa
:102cb4000200fa00000f78009e007800f1408800be
:102cc400ffff37000000fa00c08d20008007780065
:102cd400408f2000000188000080fa0000000600f8
:102ce4000000fa0089fe07007bff07001fff0700b2
:102cf40053f8070022fd070004fa0700b6fb07009b
:0c2d0400d4ff07000080fa000000060069
:020000040000fa
:020000040002f8
:04aff000ffff00005f
:020000040000fa
:020000040002f8
:04aff400ffff00005b
:020000040000fa
:020000040002f8
:04aff800bf3700005f
:020000040000fa
:020000040002f8
:04affc003f3f0000d3
:00000001FF
